:020000040800F2
:10000000C8090020E901000847340008C52E00088F
:1000100045340008C1150008F93700080000000049
:100020000000000000000000000000004B34000849
:100030005316000800000000493400084D34000841
:10004000030200080302000803020008030200087C
:10005000030200080302000803020008030200086C
:100060000302000803020008030200081D1600082E
:10007000030200080302000803020008030200084C
:10008000030200080302000803020008030200083C
:10009000030200080302000803020008030200082C
:1000A000030200080302000803020008030200081C
:1000B000C13400080302000803020008030200081C
:1000C00003020008030200080302000803020008FC
:1000D000030200080302000803020008ED370008CD
:1000E00003020008030200080302000800F002F8FF
:1000F00000F06AF80AA090E8000C82448344AAF158
:100100000107DA4501D100F05FF8AFF2090EBAE855
:100110000F0013F0010F18BFFB1A43F0010318473B
:10012000D8490000F84900000A444FF0000C10F8CC
:10013000013B13F0070408BF10F8014B1D1108BF65
:1001400010F8015B641E05D010F8016B641E01F805
:10015000016BF9D113F0080F1EBF10F8014BAD1C55
:100160000C1B09D16D1E58BF01F801CBFAD505E073
:1001700014F8016B01F8016B6D1EF9D59142D6D3CD
:10018000704700000023002400250026103A28BFF5
:1001900078C1FBD8520728BF30C148BF0B607047F9
:1001A000662904F0D883642900F05280002070474B
:1001B0001FB500F025FC04000020002103F058FDCD
:1001C000E0601FBD10B510BD00F01AFD1146FFF72D
:1001D000EFFF03F099FB00F038FD03B4FFF7F2FFE7
:1001E00003BC00F07BFD0000094880470948004738
:1001F000FEE7FEE7FEE7FEE7FEE7FEE7FEE7FEE7D7
:10020000FEE7FEE704480549054A064B7047000033
:10021000BF340008ED000008C8030020C809002012
:10022000C8050020C80500200FB41CB5074B06AA5E
:100230007B4469460090059800F0C9FB00206946A0
:1002400000F0D8FB1CBC5DF814FB0000C1070000E7
:100250002DE9F0410646002410687529314616A59F
:1002600010D0AFF30080002802DA404213A507E067
:1002700031688A0701D512A502E0490704D511A506
:10028000012401E0AFF3008000210A2206F12407D7
:1002900009E0B0FBF2FCB0FBF2F302FB1C003030D3
:1002A00078541846491C0028F3D123462A46304684
:1002B000BDE8F04100F01DB9000000002D00000075
:1002C0002B000000200000002DE9F05F8946044665
:1002D0004FF0000ADFF824B1FB44C0F820A020460C
:1002E000E168884700287DD0252806D0D4E901217F
:1002F0009047206A401C2062F1E700255F462046B7
:10030000E16888472028064607DB312E05D2B81958
:1003100010F8200C08B10543F1E7A80701D525F036
:100320000405C4F81CA00027C4F818A02A2E09D080
:10033000304603F086FA38B304EB8708303EC8F83D
:10034000186019E059F8041B204604EB87029161FC
:10035000E1688847012F064618D1E069002820DAB5
:1003600025F020051DE0D8F8180000EB800006EB12
:1003700040003038C8F818002046E1688847064633
:1003800003F05FFA0028EED1012F0AD02E2E08D1FB
:100390002046E16888477F1C0646022F45F020056D
:1003A000C4DBA069002803DA404245F00105A061E2
:1003B000E80701D025F01005A6B1A6F141001928E3
:1003C00002D8203645F400654A463146204625606D
:1003D0004D46FFF7E5FE60B1012807D0ED1D25F081
:1003E000070000E007E000F1080978E705F10409DB
:1003F00075E730467AE7206ABDE8F09F764700004F
:1004000040EA0103024630B59B0710D14FF001349A
:1004100000E008C208C91D1B9D4315EAC41FF8D09F
:1004200013F0FF0102F8011B0DD01B0AF8E711F8C9
:10043000013B002B02F8013B05D011F8013B002BDA
:1004400002F8013BF3D130BD10B5431C02E010F8B7
:10045000011B71B18107FAD14FF0013202C88C1A29
:100460008C4314EAC211F9D0C01A0A0603D0C01E88
:1004700010BDC01A10BD0A0401D0801E10BD0902B3
:10048000FCD0401E10BD421E12F8013F002BFBD1D4
:1004900011F8013B002B02F8013BF9D170474FF0F6
:1004A000000200B5134694469646203922BFA0E8C4
:1004B0000C50A0E80C50B1F12001BFF4F7AF0907D0
:1004C00028BFA0E80C5048BF0CC05DF804EB8900C1
:1004D00028BF40F8042B08BF704748BF20F8022B04
:1004E00011F0804F18BF00F8012B7047704770471C
:1004F00070472DE9F0470D4699469246044600F1B3
:1005000024080168880604D5E06921F01001216003
:1005100000E00120A84201DD471B00E00027A1699F
:100520007A1902EB0900081AA0612078C00602D4EB
:100530002046AFF30080002608E0D4E901211AF834
:1005400006009047206A401C761C20624E45F4DB72
:100550002078C0060AD52046AFF3008006E0D4E933
:10056000012130209047206A401C2062381EA7F1EC
:100570000107F4DC07E0D4E9012118F805009047F1
:10058000206A401C2062281EA5F10105F3DC2046EC
:10059000AFF300802078000602D50220BDE8F08786
:1005A0000120FBE770472DE9FF4F0C461E464FF038
:1005B000FF378BB0D2E90001DDF860800A908A46EF
:1005C000C1F30A5505B93D46002108464FF0000029
:1005D000BAF1000F00F4400005DA00EB80004FF4A0
:1005E000400101EA50004FEA9059B9F1010F00DDD6
:1005F000B9460A9850EA4A000ED044F61050A5F2C7
:10060000FF3545432F14B8F1000F1ED07542291E47
:100610001EDDC9F100021CE0B8F1010F4FF000002F
:1006200001D0302103E0F24305E02154401CB042E8
:10063000FBDB30460022002121540B99C1F80880D1
:10064000C1E900200FB0BDE8F08FBD1B6D1CDEE7D7
:100650004A4600DA694206A800F05CFA06AB93E865
:10066000070003AB83E8070050460A9900F03DFB02
:100670008DE80700A0F500501F3800900398002D6A
:100680000ADD42F21F014A460844002303A90390F1
:10069000684600F0A6FD09E0A0F500504A461F3864
:1006A000002303A90390684600F0B0FD8DE8070021
:1006B0000004000C03D04FF0FF30410800E010466A
:1006C000B8F1000F03D00022009215461EE0751EFF
:1006D00005D400F099F9303262556D1EF9D5B34654
:1006E0000122084302D000227F1C04E02078302839
:1006F00001D100227F1E002A099784D01DE0112D10
:1007000007DA00F081F9303262556D1C50EA0102BF
:10071000F5D1084302D00098C8B10EE00021681E50
:1007200005E0235C625C63542254401E491C8142F4
:10073000F7DBAB46A81B401E0990002004F80B0015
:100740000B98099AC0F80880C0E9002B7AE71126B7
:100750004FF0000857E72DE9F04F88460446D21DB8
:1007600022F0070191B0D1E90001CDE90A0103F0BF
:1007700044F802460B98C00F01D02D2007E02068F6
:10078000810701D52B2002E0202101EAC000032AC5
:10079000099001D0072A05DB03464146204600F0B8
:1007A00079F90BE12078800601D5E06900E00620A8
:1007B000B8F1650F814606D0B8F1660F18D0B8F1D0
:1007C000670F70D131E00020B9F1110F009001DB0B
:1007D000112301E009F101030AAA01A90CA8FFF7FE
:1007E000E2FEDDE90C70002609F10105834647E0D1
:1007F00001204B4600904FF000470AAA01A90CA81F
:10080000FFF7D1FEDDE90DB00C995D46002610B969
:1008100009F101000D18B9EB050003D4C0F1FF3652
:1008200009F10105A5EB09002BE0B9F1010F01DA8F
:100830004FF001090020B9F1110F0090484601DD89
:10084000112300E003460AAA01A90CA8FFF7ABFE9A
:10085000DDE90C704D4600268346207800070AD457
:10086000AB4500DA5D4601A8012D04DD411911F800
:10087000011C302907D04F4502DA17F1040F04DAC2
:10088000012082460FE06D1EEEE7002F02DCED1B1B
:100890003E4403E0781CA84200DD7D1CB81B00F13B
:1008A000010A4FF000472078000703D4AA4501DB76
:1008B0004FF0FF3A0021B7F1004F0DF143088DF8DA
:1008C000431024D002202B23002F01DA7F422D2356
:1008D0000A21021EA0F1010000DC5FB197FBF1FCD0
:1008E00097FBF1F201FB1C7C17460CF1300C08F869
:1008F00001CDEEE7A8F1010003702188090501D5BB
:10090000452100E06521A0F1010800F8011C0998CB
:100910000FA9A1EB0807FF1D00B10120411901EB50
:10092000EA70A1693844081A401EA0612078C00608
:1009300002D42046AFF30080099828B1D4E9012100
:100940009047206A401C20622078C00622D52046AD
:10095000AFF300801EE0002E04DBB34502DD01A8EA
:10096000805D00E03020D4E901219047206A401CDE
:100970002062761CAAF101005FEA000A0AD100F0A9
:100980003FF8C0680168405CD4E901219047206AC3
:10099000401C2062281EA5F10105DCDC07E0D4E93B
:1009A000012118F8010B9047206A401C2062381E74
:1009B000A7F10107F3DC2046AFF30080032011B05C
:1009C00041E6000001694A1C02610878704700B5E1
:1009D0008FB0CDE901310021059105497944CDE978
:1009E000031011466846FFF76FFC0FB000BD000012
:1009F000E5FFFFFF0A6802F8010B0A60704700007C
:100A0000004870478403002030B5B0F10A024FEA75
:100A1000900E71F100034EEA817EB0EB0E0061EBA7
:100A200091014FEA101E4EEA017E10EB0E0041EBE1
:100A300011114FEA102E4EEA016E10EB0E0041EB41
:100A400011214FEA104E4EEA014E10EB0E0041EB21
:100A50001141401841F100014FEAD00040EA4170D5
:100A60004FEAD10110EB80054FEA810444EA90740B
:100A700044EB01046D1944EB0404521BA3414FF0F5
:100A8000000348BF0A3200D530BD401C41F10001CF
:100A900030BD00002DE9F0411F46044603260168E1
:100AA000072A01F4006004DB08B116A505E016A5CD
:100AB00003E008B115A500E015A521F010002060A5
:100AC000A069C01EA0610FB1401EA0612046AFF317
:100AD00000804FB1D4E9012138469047206A401C7C
:100AE0002062C01C206206E0206AFAE7D4E90121F6
:100AF00015F8010B9047761EF8D22046AFF3008020
:100B0000BDE8F0814E414E006E616E00494E4600D8
:100B1000696E66002DE9F047814616468AB0354871
:100B200078440DC88DE80D0032487844801C03AC31
:100B30000DC884E80D0041F69B300844372190FB36
:100B4000F1F290FBF1F5A5F1800501FB12041B3CCD
:100B500002D56442012000E00020DFF898A0804622
:100B60000027FA44AAF1BE0A0EE0E0070AD0324696
:100B7000684607EB470101230AEB810100F046FBC1
:100B80008DE8070064107F1C002CEED1194F7F44C4
:100B9000AE3F19E0E80715D007EB04100DF1180A75
:100BA00090E80E008AE80E00C068F04201D1981962
:100BB00008903246012306A903A800F027FB03ABE7
:100BC00083E807006D10641C002DE3D14FF0010392
:100BD00032466946B8F1000F03A802D000F001FBCD
:100BE00001E000F013FBC9E90001C9F808200AB0D0
:100BF000BDE8F087BC3F0000004870476403002058
:100C00007546FFF7F9FFAE4605006946534620F0EA
:100C10000700854618B020B5FFF7F4FABDE820407C
:100C20004FF000064FF000074FF000084FF0000BA8
:100C300021F00701AC46ACE8C009ACE8C009ACE85B
:100C4000C009ACE8C0098D46704710B50446AFF343
:100C500000802046BDE81040FFF7BFBA4FF0013CCE
:100C600050F8042B51F8043B9A4221D1A2EB0C031B
:100C7000934313EACC1317D150F8042B51F8043BDB
:100C80009A4215D1A2EB0C03934313EACC130BD178
:100C900050F8042B51F8043B9A4209D1A2EB0C0303
:100CA000934313EACC13DBD04FF00000704700BF32
:100CB000D01A01BAB1FA81F101F0180122FA01F05B
:100CC000CB40C1F12001DBB2C0B2C01A2CFA01F353
:100CD000D11A914311EAC311E6D170470149182096
:100CE000ABBEFEE72600020070475FEA400C08BF7B
:100CF00091F0000F4FEA8C234FEAC12243EA515191
:100D00004FEA1C5018BF00F5F0404FEA300018BF02
:100D100041F000415FEA6C5C00F02980BCF1FF3FCC
:100D200008BF40F080407047130C06BF12044FF01C
:100D3000100C4FF0000C130E04BF12020CF1080C43
:100D4000130F04BF12010CF1040C930F04BF9200A7
:100D50000CF1020CD30F04BF52000CF1010C114630
:100D60004FF00002A0F11F00A0EB0C00704711F043
:100D7000004F08BF704731F000413FF4D5AF0B0C76
:100D800006BF09044FF0100C4FF0000C0B0E04BF0F
:100D900009020CF1080C0B0F04BF09010CF1040C43
:100DA0008B0F04BF89000CF1020CCB0F04BF49006C
:100DB0000CF1010CCCF12003A0EB0C0022FA03F3A0
:100DC00002FA0CF241EA030100F10100704720F041
:100DD0007F4C80EA030023F07F47ACEB070303F569
:100DE0007C5300F0004003F1FF032DE980494FEAF6
:100DF000154B09B44FEA144325EA0B4E24EA034885
:100E00000FF2042606EB132749083E785FEA320208
:100E100003FB0667C7F5000707FB06F64FEA5437E2
:100E20004FEAD64606F1020607FB066CCCF1005CE1
:100E30004FEA1C472CEA074C07FB06F40CFB06F5AF
:100E400004EB15464FEA961634BF00204FF00040E1
:100E50004FEAD13706FB07FC4FEA1C4C0CFB0BF7A3
:100E6000D21B03FB0CF761EB07010CFB0EF7B0EB99
:100E7000074072EB17420CFB08F734BFA2EB0742A6
:100E8000B2EB074261EB17414FEA0C444FEA91077E
:100E900006FB07FC4FEA1C4C0CFB0BF7B0EBC74002
:100EA00072EB573203FB0CF734BFA2EBC742B2EB35
:100EB000C74261EB57310CFB0EF7B0EBC70072EB8A
:100EC00057720CFB08F734BFA2EBC702B2EBC702A4
:100ED00061EB5771039F4FEA816141EA921104EB84
:100EE000CC044FEAD1374FEA826206FB07FC42EAA4
:100EF00090124FEA80604FEA1C4C0CFB0BF7D21BA0
:100F000003FB0CF761EB07010CFB0EF7B0EB07409E
:100F100072EB17420CFB08F734BFA2EB0742B2EBAF
:100F2000074261EB17414FEA8C554FEA910704EBFA
:100F30009C2406FB07FC4FEA1C4C0CFB0BF7B0EBA8
:100F4000C74072EB573203FB0CF734BFA2EBC7422A
:100F5000B2EBC74261EB57310CFB0EF7B0EBC700A9
:100F600072EB57720CFB08F734BFA2EBC702B2EB6F
:100F7000C70261EB577115EB4C254FEA816141EADD
:100F800092114FEA82624FEAD13742EA901206FB91
:100F900007FC44F100044FEA80604FEA1C4C0CFB54
:100FA0000BF7D21B03FB0CF761EB07010CFB0EF7F1
:100FB000B0EB074072EB17420CFB08F734BFA2EB13
:100FC0000742B2EB074261EB174115EB1C154FEAE4
:100FD000813141EA92414FEA823242EA90424FEA3D
:100FE00080304FEA0C7644F1000448EA03434EEAAD
:100FF0000B484FF0000EB2EB080C71EB030724BF57
:10100000624639464EEB0E0E4FF0000B001852416F
:1010100049414BEB0B0BB2EB080C71EB03077BF177
:10102000000B24BF624639464EEB0E0E4FF0000B0C
:101030000018524149414BEB0B0BB2EB080C71EB22
:1010400003077BF1000B24BF624639464EEB0E0EC0
:1010500051EA020718BF46F0010616EB0E7655F16D
:10106000000254F1000103D5BDE88901BDE8008804
:10107000BDE88901BDE80048B619524141EB0101C4
:10108000A3F10103704780807F7E7D7C7B7A797835
:10109000777676757473727171706F6E6E6D6C6C3D
:1010A0006B6A6A69686867666665646463636261DF
:1010B0006160605F5F5E5E5D5D5C5C5B5B5A5A5960
:1010C00059585857575656555555545453535252CC
:1010D0005251515050504F4F4F4E4E4D4D4D4C4C24
:1010E0004C4B4B4B4A4A4A4949494848484747476D
:1010F00047464646454545444444444343434342AA
:10110000424242414141002B9C4630D477002BD0D3
:101110001CB54FEA370703B44FF010004FF0100131
:10112000BAF1000F06D0BCF1000FDCBF40F00800A0
:1011300040F008014FF000000FBCBDE810400BF17B
:10114000010BBBF1010F08BF5FEA170722BF12F1C5
:10115000010211F101014FF0004143F1000300F0E1
:10116000004043EA00007047F9D35708D0E746EA49
:10117000064613F1400F4FEA16461FDD13F1200F0C
:10118000DFBF16430A46002120335B42BED0C3F1C5
:10119000200746EA064602FA07F74FEA164646EAED
:1011A0000706C3F1200722FA03F201FA07F721FA32
:1011B00003F14FF0000342EA0702A7E746EA0206FE
:1011C00046EA06464FEA164646EA0106BCBF46EA2C
:1011D0000646360C4FF000034FF000024FF00001BE
:1011E00094E72DE9804C9A46934670B491E8380014
:1011F00007C831EA400C48BF34EA430C03D5FFF777
:10120000E6FDFFF780FFF0BCBDE8008C2DE9804CC7
:101210009A46934670B491E8380007C810F0804FA2
:1012200008BF13F0804F03D100F005F8FFF76BFF04
:10123000F0BCBDE8008C20F07F4780EA030023F07B
:101240007F4C07EB0C03A3F57C5300F00040A3F1A7
:10125000FE0392F0000F00F0B38095F0000F00F055
:1012600077802DE901494FEA11404FEA144621EAFF
:10127000004800FB06FC24EA064708FB06F607FBCD
:1012800008F800FB07F718EB06484CEB164C4FEA42
:10129000124B18EB07484FEA15464CEB174022EA71
:1012A0000B4E0BFB06FC25EA06470EFB06F607FB7A
:1012B0000EFE0BFB07F71EEB064E4CEB164C4FF0E9
:1012C00000061EEB074E4CEB174B18EB0B0840F1DA
:1012D000000018EB0E0B58EB000840F100008F1ACD
:1012E0004FF000013CBFC943661B14BFB5EB040CB3
:1012F00000213CBFC943F61B4FEA17444EEA8E0E4D
:1013000027EA04454FEA1C4704FB07622CEA074C16
:1013100005FB07F70CFB05F604FB0CFC16EB074678
:1013200042EB174216EB0C4642EB1C421BEB060647
:1013300058EB0202414146EA9E0601D5BDE801890B
:10134000B619524141EB0101A3F10103BDE8018946
:101350004FEA14454FEA114724EA054621EA074CB3
:1013600005FB07F406FB07F70CFB06F105FB0CFC7D
:1013700011EB074144EB17444FEA124711EB0C41C4
:1013800044EB1C4422EA074C05FB07F206FB07F777
:101390000CFB06F605FB0CFC16EB074642EB17426E
:1013A00016EB0C4642EB1C456A1854F1000148BF8D
:1013B0007047B619524141EB0101A3F10103704797
:1013C00095F0000F37D04FEA11424FEA144721EA57
:1013D000024624EA074C02FB07F106FB07F70CFB69
:1013E00006F402FB0CFC14EB074441EB17414FEAF7
:1013F000154714EB0C4441EB1C4125EA074C02FB5A
:1014000007F506FB07F70CFB06F602FB0CFC16EBD8
:10141000074645EB174516EB0C4645EB1C421219E7
:1014200051F1000148BF7047B619524141EB01012B
:10143000A3F1010370474FEA14454FEA114724EA2C
:10144000054621EA074C05FB07F106FB07F70CFBF5
:1014500006F24FF0000605FB0CFC12EB074241EBD5
:10146000174112EB0C4251EB1C4148BF70479218D8
:1014700041EB0101A3F101037047000070B5044680
:1014800000688168C943C90717D1816821F001014B
:10149000816000F053FD05460AE000BF00F04EFDFC
:1014A000401B022804D920688068C043C00706D0CA
:1014B00020688068C043C007F0D0002070BDA06ADB
:1014C00040F01000A062E06A40F00100E0620120FC
:1014D00070BD10B50146406A826A12F0500F05D007
:1014E000006A026BBDE8104008461047816A41F46B
:1014F0000071816201688968C1F3424107290CD1FA
:10150000017B51B9816A21F480718162816AC904C9
:1015100003D4816A41F00101816200F01BF910BD22
:1015200010B5406A816A41F040018162C16A41F0B0
:101530000401C16200F010F910BD10B5406A00F05E
:101540000AF910BDF8B500260446009600688168C7
:10155000C943C9072DD0816841F001018160164857
:1015600016490068B0FBF1F000E0401E0090002832
:10157000FBD100F0E3FC054616E000BF00F0DEFC06
:10158000401B022810D920688068C043C0070BD0D8
:10159000A06A40F01000A062E06A40F00100E06242
:1015A00084F824600120F8BD20688068C043C0072B
:1015B000E4D10020F8BD0000C401002040420F002B
:1015C000FEE7000070B5114DD5E90610401A02F093
:1015D000C4FD0F4A0F4B02F0D7FD02F05FFB04463B
:1015E00010F1FF4F06D3012103F0E9F9214603F082
:1015F00033F904460848844200DD0446204603F0DF
:101600004BF802493631085CA87170BD1800002003
:101610000AD7A3703D0AE73F0080B343014800F0BA
:1016200069BA00009402002030B590F840500124BF
:10163000AC40C56B6C60046863604368102B036842
:1016400003D099600068C26030BD9A600068C160D4
:1016500030BD704772B6FEE7F8B50024009490F8EC
:1016600024202546012A12D0012280F824204A682D
:101670001F23072A0DD20668776B521E02EB8202E7
:1016800093409F430B6893401F43776319E0022008
:10169000F8BD06680D2A0AD2376BD21F02EB820210
:1016A00093409F430B6893401F43376309E0F76AF9
:1016B0000D3A02EB820293409F430B6893401F4315
:1016C000F7620A68072306680A2A0AD3F7680A3A03
:1016D00002EB420293409F438B6893401F43F760A5
:1016E00008E0376902EB420293409F438B689340C6
:1016F0001F4337610A68102A01D0112A20D1124BEA
:1017000002689A4217D193681B0219D4936843F474
:10171000000393600968102912D10C490C4A09682A
:10172000B1FBF2F101EB8101490000E0491E00919B
:101730000029FBD104E0816A41F02001816201248B
:1017400080F824502046F8BD00240140C401002048
:1017500040420F0070477047704700002DE9F0418C
:101760004FF0000704003D467ED0A06A002628B94D
:10177000E66284F82460204600F07EF82046FFF7F9
:101780007DFEA16AC90600D420B1A06A40F0100015
:10179000A06269E0A16A21F4885141F00201A162CE
:1017A0006268E169237B0A4347EA43010A43A1686F
:1017B0004FF48077B94209D0012907D05FF00001CA
:1017C00094F814C0BCF1010F02D00AE03946F7E7E3
:1017D000F3B1A36A43F02003A362E36A43F0010379
:1017E000E3622368D3F804C02CF4694C4CEA010C82
:1017F000C3F804C021688B68DFF870C003EA0C03EB
:1018000013438B60A168B9420BD0012909D00CE0C9
:10181000DFF85CC0A3690CEB43330B4343F4006176
:10182000DFE7218A0D05A5F580152168CB6A23F431
:1018300070032B43CB62216889680E4B194091429B
:1018400008D1E662A16A21F0020141F00101A16222
:10185000BDE8F081A06A20F0020040F01000A06214
:10186000E06A40F00100E0620120F1E7FDF7E1FFEE
:1018700000E0FFFFFE0E1FFF70B586B00025064694
:10188000009501950295039500681A4988422ED16A
:101890001949886940F400708861886900F4007013
:1018A0000490886940F0040088618869694600F006
:1018B0000400049007200090032001900F4800F0DE
:1018C0003BFA104C0E48C4E900058020C4E90250E0
:1018D00040002061800060612020C4E906052046A8
:1018E00000F0B2F908B1FFF7B5FE3462666206B0E7
:1018F00070BD0000002401400010024000080140BB
:1019000008000240940200202DE9F0478946044671
:101910003B4900683B4F0E1D9046884201D0B842BB
:1019200007D1306810F4702F03D001252846BDE898
:10193000F08794F8240001280CD0012084F82400BA
:101940002046FFF7FFFD05004FF0000004D084F8AB
:101950002400EBE70220EAE7A16A40F60162914326
:1019600041F48071A1622168B94218D1326812F441
:10197000702F14D0A16A41F48011A1623168490529
:1019800005D5A16A21F4005141F48051A162A16AF8
:10199000C9040AD5E16A21F00601E16206E0A26A03
:1019A00022F48012A2624968E9E7E06284F8240028
:1019B000216A15488862216A1448C862216A14485D
:1019C000086321686FF0020008602068816841F4B4
:1019D00080718160216843464A464C31206A00F09C
:1019E00061F920688168C1F342410729816803D009
:1019F00041F48011816099E741F4A001FAE7000009
:101A00000024014000280140D31400083B150008C1
:101A10002115000810B590F821100022022905D0E8
:101A20000421816380F82020012010BD01680B682B
:101A300023F00E030B6001680B6823F001030B60B9
:101A400090F84030C46B012101FA03F3636080F821
:101A5000211080F82020104610BD000010B590F82D
:101A600021100024022903D00421816301243DE0D8
:101A700001680A6822F00E020A6001680A6822F012
:101A800001020A601A4A0168914201D1012121E054
:101A9000174A1432914201D110211BE0144A283216
:101AA000914201D1891515E0114A3C32914201D190
:101AB00089140FE00E4A5032914202D14FF4803126
:101AC00008E00B4A6432914202D14FF4801101E0E8
:101AD0004FF08071064A083A5160012180F82110C8
:101AE000002180F82010416B01B18847204610BDCD
:101AF000080002402DE9F05FC16B0C6801680B68BB
:101B0000D0F840C0042202FA0CF2494DDFF824A1BB
:101B1000494E4A4FDFF828B1DFF828E122422CD0A5
:101B20005A072AD50A68920603D40A6822F00402EA
:101B30000A600168A94201D1042219E0514501D18E
:101B4000402215E0B14202D14FF4806210E0B94268
:101B500002D14FF480420BE0594502D14FF480226C
:101B600006E0714502D14FF4800201E04FF080623F
:101B70002F4908394A60C16A3BE04FF0020808FA71
:101B80000CF818EA040F4FF000094FF0010235D0AD
:101B90005FEA837832D50B689B0605D40B6823F087
:101BA0000A030B6080F821200168A94201D10222BA
:101BB00019E0514501D1202215E0B14202D14FF484
:101BC000007210E0B94202D14FF400520BE05945C7
:101BD00002D14FF4003206E0714502D14FF40012F9
:101BE00001E04FF00072124908394A6080F82090F5
:101BF000816A00291AD0BDE8F05F0847082505FA78
:101C00000CF5254212D01B0710D50B6823F00E03EC
:101C10000B6090F84010C36B02FA01F159608263C7
:101C200080F8212080F82090016BE2E7BDE8F09F6A
:101C3000080002401C000240300002404400024004
:101C4000580002406C00024030B528B308C8134960
:101C500014221944B1FBF2F18900C1631049816378
:101C6000022141771A6843F6F0718A43D0E90014E3
:101C70002143D0E902452C432143046921434469AF
:101C800021438469214311431960002141630122EA
:101C900042770177084630BD012030BDF8FFFDBF17
:101CA0000000024070B5044690F82000002501288D
:101CB0000CD0012084F8200094F821600020012E2F
:101CC00006D084F820000225284670BD022070BD91
:101CD000022684F82160A0632068066826F00106C9
:101CE00006602046FFF7A0FCE06A00282068016833
:101CF00002D041F00E0106E021F0040101602068ED
:101D0000016841F00A0101602068016841F00101A9
:101D10000160D9E770B5044600F010F90546601C73
:101D200002D004480078044400F008F9401BA042A7
:101D3000FAD370BDB80100202DE9F84FDFF8B89153
:101D4000002409F1040A0AF1040B23460F270BF1C2
:101D5000040EC9E00125A5402A40AA427DD1674E64
:101D6000D1F804C0ACEB0608B44532D014DCBCF1A9
:101D7000030F3AD009DCBCF1000F2AD0BCF1010FEF
:101D80001CD0BCF1020F31D11DE0BCF1110F17D0F6
:101D9000BCF1120F2AD119E0B8F5881F19D006DC62
:101DA000B8F5803F15D0B8F5801F1FD111E0B8F508
:101DB000001F0ED0B8F5041F18D10AE0CB6815E05B
:101DC000CB681B1D12E0CB6808330FE0CB680C33E7
:101DD0000CE08B682BB1012B4FF0080303D0456159
:101DE00004E0042302E0056100E00023FF2A01D89B
:101DF000064601E000F104064FEA840501D9A5F189
:101E00002005D6F8008007FA05FC28EA0C0803FA3A
:101E100005F548EA0508C6F800804D68ED0062D572
:101E2000374DAE6946F00106AE61AD6924F0030698
:101E300005F001050095334D06EB050CDCF8085064
:101E4000A607360F07FA06F825EA0805DFF8B88076
:101E5000404503D14FF0000817E044E0DFF8AC80C4
:101E6000404502D14FF001080FE0DFF8A480404563
:101E700002D14FF0020808E0DFF89880404502D117
:101E80004FF0030801E04FF0040808FA06F848EAAA
:101E90000508CCF808804D68D9F80060ED034D4680
:101EA00001D5164300E096432E604D68DAF80060D5
:101EB000AD03554601D5164300E096432E604D68AC
:101EC000DBF80060ED025D4601D5164300E0964365
:101ED0002E604D68DEF80060AD02754601D51643F0
:101EE00000E096432E60641C0D682A46E5407FF4AE
:101EF00031AFBDE8F88F0000000401400000111070
:101F0000001002400000014000080140000C0140A8
:101F100000100140001401408068084000D00120FA
:101F20007047C26821EA02030A4043EA02410161A4
:101F300070470AB1016170470904FBE701488068F6
:101F400070470000B80100200248816802781144FF
:101F500081607047B8010020074810B5016841F062
:101F600010010160032000F075F80F2000F006F862
:101F700000F024F8002010BD0020024070B50D4D87
:101F800004464FF47A712878B1FBF0F00A490968E9
:101F9000B1FBF0F000F062FB48B9102C07D2002230
:101FA0002146501E00F036F800206C6070BD012004
:101FB00070BD0000B8010020C40100200C4808B525
:101FC000816941F001018161816901F001010091A4
:101FD000C16941F08051C161C06900F0805000903A
:101FE0000448416821F0E06141F00071416008BDA2
:101FF0000010024000000140002809DB00F01F0231
:10200000012191404009800000F1E020C0F800115A
:1020100070470000F0B40E4B1B680C46C3F302235C
:10202000C3F10705042D00D90425191D072901D284
:10203000002300E0DB1E012606FA05F1491E2140BF
:1020400099409E40761E16403143F0BC01F0E9BB3A
:102050000CED00E0064900F0070208684FF6FF03A8
:10206000184040EA0220034A10430860704700000D
:102070000CED00E00000FA052DE9F8430546007874
:10208000354CC00754D0E0690026C00008D4E06990
:1020900040F08050E061E069012600F0805000903F
:1020A0002E480168C90512D40168804641F4807148
:1020B0000160FFF743FF074605E000BFFFF73EFF63
:1020C000C01B642823D8D8F80000C005F6D5206AC4
:1020D00010F4407021D0A98801F4407181421CD0D5
:1020E000206A1F49012220F440700A6000220A6021
:1020F0002062C00711D0FFF721FF074641F2883860
:1021000008E000BFFFF71AFFC11B414502D90320B9
:10211000BDE8F883206A8007F4D5206A696820F456
:102120004070084320621EB1E06920F08050E061F9
:102130002878800705D56068A96820F440400843E6
:1021400060602878C00605D56068E96820F48000E2
:10215000084360600020DBE7001002400070004090
:10216000400442422DE9F0470F46050061D0434E3E
:10217000306800F00700B84209D2306820F007004C
:1021800038433060306800F00700B84251D1286809
:102190003B4C810712D5400703D5606840F4E060EE
:1021A00060602878000703D5606840F46050606084
:1021B0006068A96820F0F000084360602878C007D4
:1021C00028D06868012810D02168022810D089071B
:1021D00000292EDA616821F0030101436160FFF7F5
:1021E000ADFE804641F288390DE021688903EFE7B2
:1021F0008901EDE7FFF7A2FEA0EB0801494502D9EE
:102200000320BDE8F0876068696800F00C00B0EB5F
:10221000810FEFD1306800F00700B8420BD9306869
:1022200020F0070038433060306800F00700B84203
:1022300001D00120E5E72878400705D56068E96806
:1022400020F4E060084360602878000706D56068E5
:10225000296920F4605040EAC100606000F038F85D
:102260006168084AC1F30311515CC840064908601F
:1022700006480068FFF782FE0020C2E70020024007
:10228000001002403A4A0008C4010020BC010020AE
:102290000448054900684968044AC1F30221515CB9
:1022A000C8407047C4010020001002404A4A00089C
:1022B0000448054900684968044AC1F3C221515CD9
:1022C000C8407047C4010020001002404A4A00087C
:1022D00012A185B00FC98DE80F0014A0144A006840
:1022E00004905168134801F00C03042B10D0082B04
:1022F0000ED1C1F38343C9031DF803000AD5516809
:1023000004AAC1F34041515C0A4A5043B0FBF1F0CA
:1023100005B0704708494843FAE700000203040586
:10232000060708090A0B0C0D0E0F10100102000021
:102330000010024000127A0000093D002DE9F84F1C
:10234000040070D02078C04DC00749D06868C0F341
:102350008100012807D06868C0F38100022809D1F4
:102360006868C00306D52868800339D560680028EE
:10237000E7D035E06068B0F5803F0BD010B1B0F524
:10238000A02F11D0286820F480302860286820F41D
:10239000802002E0286840F480302860606890B1B6
:1023A000FFF7CCFD06460AE0286840F4802028604C
:1023B000F0E700BFFFF7C2FD801B642873D82868D0
:1023C0008003F7D50CE0FFF7B9FD064605E000BF36
:1023D000FFF7B4FD801B6428F0D828688003F7D489
:1023E00020789A4E80074FF001094FF0000839D548
:1023F000686810F00C0F07D06868C0F381000228ED
:1024000009D16868C00306D42868800714D52069FC
:10241000012808D110E02069B0B1C6F80090FFF79C
:102420008DFD074605E00AE1FFF788FDC01B022885
:10243000C4D828688007F7D52868616920F0F800BB
:1024400040EAC10028600DE0C6F80080FFF776FD85
:10245000074604E0FFF772FDC01B022823D8286856
:102460008007F7D4207800072CD57948A169D9B125
:10247000C0F80090FFF762FD074604E0FFF75EFD3D
:10248000C01B02280FD8686A8007F7D571484FF43F
:10249000FA510068B0FBF1F0009000BF0098411EB7
:1024A0000091FAD20EE080E0C0F80080FFF746FD10
:1024B000074604E0FFF742FDC01B022875D8686A92
:1024C0008007F7D42078400760D5E8690027C0006E
:1024D00008D4E86940F08050E861E869012700F01D
:1024E000805000905C480168C90513D40168834698
:1024F00041F480710160FFF721FD824606E000BFD4
:10250000FFF71CFDA0EB0A0064284ED8DBF80000A2
:10251000C005F5D5E06801280AD008B1052813D018
:10252000286A20F001002862286A20F0040002E0F6
:10253000286A40F001002862E06841F2883B98B1C7
:10254000FFF7FCFC82460BE0286A40F0040028629A
:10255000EEE700BFFFF7F2FCA0EB0A0159455AD89D
:10256000286A8007F6D50CE0FFF7E8FC824605E014
:10257000FFF7E4FCA0EB0A0159454CD8286A800714
:10258000F6D41FB1E86920F08050E861E06988B3B3
:102590006968C1F38101022944D00228C6F860802D
:1025A00004D0FFF7CBFC044638E034E0FFF7C6FC6C
:1025B000074604E0FFF7C2FCC01B02282BD828689E
:1025C0008001F7D4206AB0F5803F05D16868A16822
:1025D00020F4003008436860D4E9080108436968C2
:1025E00021F4741108436860C6F86090FFF7A6FCF8
:1025F000044606E025E000BFFFF7A0FC001B022810
:1026000009D828688001F7D51BE000BFFFF796FCCA
:10261000001B022802D90320BDE8F88F286880013A
:10262000F4D40EE00128F7D06868226A00F4803103
:10263000914204D1616A00F47010884201D00120F7
:10264000EAE70020E8E700000010024000004242F4
:1026500080044242C40100200070004010B5401EBA
:10266000B0F1807F01D3012010BD4FF0E024606104
:102670000F21601701F0D5F80020A061072020612C
:10268000002010BD7047704770B590F83C20012ABB
:1026900026D0012480F83C40022280F83D200368C7
:1026A0005A689D6822F070060A6832435A600D4BE2
:1026B00002689A4208D0B2F1804F05D00A4B9A4284
:1026C00002D00A4B9A4204D1496825F0800319438D
:1026D000916080F83D40002180F83C10084670BDB4
:1026E000022070BD002C01400004004000080040A2
:1026F00010B5040003D094F83D0010B107E00120AC
:1027000010BD002084F83C00204600F01FF8022095
:1027100084F83D00211D206800F0D8FE012084F8D7
:10272000460084F83E0084F83F0084F8400084F8B6
:10273000410084F8420084F8430084F8440084F89F
:10274000450084F83D00002010BD000008B5006879
:10275000B0F1804F12D10A48C16941F00101C16155
:10276000C069002200F00100009011461C20FFF714
:1027700051FCBDE808401C20FFF73EBC08BD00002E
:102780000010024090F83D10012901D0012070474F
:10279000022180F83D100168CA6842F00102CA6057
:1027A00000680B49884208D0B0F1804F05D0094934
:1027B000884202D00849884204D1816801F00701AB
:1027C000062903D0016841F0010101600020704733
:1027D000002C0140000400400008004070B5044691
:1027E00090F83C00012817D0012584F83C500220C5
:1027F00084F83D002068826822F0770222F47F424C
:1028000082600868502830D00DDC20284DD005DCCF
:1028100098B310283BD148E0022070BD302844D046
:10282000402834D139E0602828D0702806D0B0F58F
:10283000805F2CD0B0F5005F29D10AE0CB68D1E9E8
:102840000121206800F078FE2068816841F077015E
:1028500009E0CB68D1E90121206800F06DFE206815
:10286000816841F48041816011E0CA68496820684C
:1028700000F074FE5021206807E016E0CA6849683D
:10288000206800F07CFE6021206800F05FFE84F884
:102890003D50002084F83C0070BDCA68496820683B
:1028A00000F05CFE40212068EFE7226801461046F8
:1028B000EBE7704770B50446006801694FF000050A
:1028C000C943890715D4C168C943890711D4E91ED2
:1028D000016101202077206880698007204602D0AE
:1028E000FFF7E7FF04E000F098F8204600F096F8C4
:1028F000257720680169C943490717D4C168C943CE
:10290000490713D46FF00401016102202077206889
:10291000806910F4407F204602D0FFF7CAFF04E030
:1029200000F07BF8204600F079F8257720680169EF
:10293000C943090716D4C168C943090712D46FF007
:1029400008010161042020772068C06980072046C3
:1029500002D0FFF7AEFF04E000F05FF8204600F081
:102960005DF8257720680169C943C90617D4C16895
:10297000C943C90613D46FF0100101610820207704
:102980002068C06910F4407F204602D0FFF791FF15
:1029900004E000F042F8204600F040F82577206877
:1029A0000169C943C90708D1C168C943C90704D12E
:1029B000891E0161204600F033F820680169C9438F
:1029C000090609D4C168C943090605D46FF080011E
:1029D00001612046FFF756FE20680169C943490698
:1029E00009D4C168C943490605D46FF040010161AB
:1029F000204600F04FF820680169C94389060BD4CE
:102A0000C168C943890607D46FF0200101612046DF
:102A1000BDE87040FFF737BE70BD704770470000DB
:102A200070B50068194DB0F1804FA5F1200422D196
:102A30002089401C2081288801F04AFEE16801F0CD
:102A4000DAFE05D8288801F043FEE0602089A06105
:102A5000688801F03DFE216901F0CDFE05D8688847
:102A600001F036FE20612089E0612089B0F5FA7F0F
:102A700002D30120A07070BD05490020096848629A
:102A8000BDE870400248FFF77DBE0000380000201E
:102A9000D80200207047704770470000F8B5026800
:102AA00004461068D168536910F00F0F4FF000050D
:102AB00053D003F0010601F4907737435FD0C2078B
:102AC00005D0CA0503D5226C42F0010222644207F8
:102AD00005D5DA0703D0226C42F002022264820795
:102AE00005D5DA0703D0226C42F004022264020703
:102AF00007D501F02002324303D0226C42F00802D5
:102B00002264226C002A34D0800604D5880602D5BF
:102B1000204600F066FD20684069216CC0F38010FB
:102B2000090700D430B3204600F043FD2068416916
:102B300049061BD5416921F040014161A06BA8B154
:102B400058494163A06BFEF789FF002811D0A06BA4
:102B5000416B01B0BDE8F040084783060FD58B06F6
:102B60000DD52046BDE8F84000F03BBD2046FFF7FC
:102B700093FFF8BD2046FFF78FFF2564F8BD266B55
:102B80002023012E52D1C60650D5CE064ED5106850
:102B900050680090506940062AD5A16B08684068CB
:102BA0000004000CEAD0A68D8642E7D9E08588694A
:102BB000202818D0D06820F48070D0602068416947
:102BC00021F0010141612068416921F0400141612A
:102BD00084F83E3025632068C16821F01001C1608F
:102BE000A06BFEF717FFA08DE18D401A81B219E0AE
:102BF000A08DE18D401A81B2E08D0028BED0002961
:102C0000BCD0D06820F49070D0602068426922F077
:102C10000102426184F83E3025632068C26822F0D8
:102C20001002C2602046FFF736FFF8BD05062BD51F
:102C30000D0629D594F83D002128F6D1A068B0F5FD
:102C4000805F01D12069B0B1206A411C21622168F6
:102C500000784860E08C401E0004000CE084E4D161
:102C60002068C16821F08001C1602068C16841F01E
:102C70004001C160F8BD206A0088C0F308005060C0
:102C8000206A801C2062E5E74006F3D54806F1D5AE
:102C9000D168204621F04001D16084F83D3000F039
:102CA00010F9F8BDA335000870B5040004D094F8FD
:102CB0003D00002510B106E0012070BD84F83C50B5
:102CC000204600F023F8242084F83D002068C168E5
:102CD00021F40051C160204600F0DEFC206801694B
:102CE00021F4904101612068416921F02A0141618C
:102CF0002068C16841F40051C1602564202084F837
:102D00003D0084F83E00002070BD000030B585B065
:102D100000240094019402940394006818498842A6
:102D20002CD11848C16941F48021C161C16901F405
:102D300080210491816941F0080181618069124D0F
:102D400000F0080004904FF4806000900220019091
:102D50000320039069462846FEF7EEFFE814CDE90C
:102D60000004694628460294FEF7E6FF0022114659
:102D70002720FFF74FF92720FFF73EF905B030BDB8
:102D80000048004000100240000C014090F83E3026
:102D9000202B0ED159B152B190F83C30012B08D004
:102DA000012380F83C300023036300F0D1BC0120F4
:102DB000704702207047000010B51249006809688A
:102DC00088421ED1104C1148227841784C2A02D0FA
:102DD0004F2A04D007E0012905D1022102E002298F
:102DE00001D1032141700848FDF72EFB204400214A
:102DF00000F8011CBDE81040012203490148FFF71B
:102E0000C5BF10BD20030020C8010020180000200D
:102E10002DE9F843044690F83D001F4616460D463E
:102E200020284CD1C5B1BEB194F83C00012846D051
:102E3000012084F83C004FF00008C4F840802120B5
:102E400084F83D00FFF77AF8A6848146E684A068FE
:102E5000B0F5805F03D004E00120BDE8F88320696D
:102E600028B12E465FF0000584F83C800EE0002675
:102E7000FAE78021204600F086FCA0B9AEB116F832
:102E8000010B21684860E08C401EE084E08C4B46DA
:102E90004FF0000200970028EBD14FF04001204690
:102EA00000F071FC30B10320D7E735F8020BC0F316
:102EB0000800E6E7202084F83D000020CDE702204E
:102EC000CBE77047FEE700002DE9F05F0446DDE93F
:102ED00015B0DDE91165DDE90FC7DDE90A8E303493
:102EE000DDF838A0DDF83090A4E8040744E90C3E92
:102EF0000D9A44E90A2C44E90875149A44F8406D87
:102F0000C4E90A201398C4E9010B17980022E06075
:102F10005FF0000001EB800304EB800515449B5C2F
:102F2000401C85F840300428F4DB521C042AEFDBF7
:102F3000208A012281B2206BFEF7FBFFA08A0122CA
:102F400081B2606BFEF7F5FF208B012281B2A06B8E
:102F5000FEF7EFFFA08B012281B2E06BBDE8F05FCE
:102F6000FEF7E7BF2DE9F0410546002085F8500047
:102F70004FEA000605EB86070022388A81B2386BDB
:102F8000FEF7D7FF5FF0000435F8240081B205EBAF
:102F90008400006AFEF7C0FF70B1641C042CF3DBF0
:102FA000388A012281B2386BFEF7C3FF761C042EEB
:102FB000E0DB0020BDE8F0813220FEF7ABFE05EB40
:102FC000840700BF35F8240081B2386AFEF7A4FFF9
:102FD0000028F7D0B81990F8400085F85000E9E7CC
:102FE00010B500F017F8332000F064FC322000F038
:102FF00061FC282000F05EFC012000F05BFC0C204E
:1030000000F058FCBDE81040062000F053BC012041
:1030100000F050BC2DE9F04186B033480024029402
:10302000816941F004018161816901F00401049129
:10303000816941F008018161816901F00801049111
:10304000816941F0100181618069012500F0100063
:1030500004904FF48050CDE90005DFF890800326FE
:10306000694603964046FEF767FEA803CDE90005D2
:10307000CDE9024669464046FEF75EFE6F030097C3
:103080000396CDE9015469464046FEF755FE0022FD
:1030900039464046FEF74DFFE803CDE90005CDE98E
:1030A000024669464046FEF747FE2802CDE9000584
:1030B0000F4FCDE9024669463846FEF73DFE6802ED
:1030C000CDE90005CDE9024669463846FEF734FEF3
:1030D000A802CDE90005CDE9024669463846FEF76B
:1030E0002BFE06B0BDE8F08100100240000C01404C
:1030F0000008014031B14030C0B240F0800000BF54
:1031000000F0D8BB40F08000FAE7000010B5FFF7F0
:103110007EFF00210846FFF7EDFF27A000F072F8C0
:10312000264C606901F0B8FA00F060F824A000F0C5
:1031300069F800210920FFF7DDFF22A000F062F806
:1031400094F9060064280AD010F1640F09D0002811
:103150000BDB1DA000F056F894F906000DE01BA053
:1031600000E01BA000F04EF809E01BA000F04AF8B8
:10317000A079414200EB410040B200F037F8012154
:103180000020FFF7B7FF15A000F03CF8207900F011
:103190002DF813A000F036F801210820FFF7AAFF50
:1031A00010A000F02FF8607900F020F8BDE8104082
:1031B0000DA000F027B80000543D000018000020CA
:1031C000646F430050463D00302E0000312E300029
:1031D0002D312E30000000002D302E00563D000015
:1031E00056000000493D0000410000000EB50246B7
:1031F00003A16846FDF718F8684600F003F80EBD15
:103200002564000070B50546002404E0285D00F048
:1032100067FB641CE4B22846FDF716F9A042F5D816
:1032200070BD0000FEB500241B48009401941949AC
:1032300002940160891581600125057304750326D8
:1032400006614FF460214460C161FEF787FA08B15E
:10325000FEF700FA07200094CDE9015069460E48B8
:10326000FEF7FAF908B1FEF7F5F90224CDE90054AA
:1032700069460948FEF7F0F908B1FEF7EBF9CDE928
:10328000004669460448FEF7E7F9002801D0FEF73A
:10329000E1F9FEBD0024014064020020094808B5A0
:1032A000416941F0010141614069002200F00100E3
:1032B000009011460B20FEF7ADFEBDE808400B2044
:1032C000FEF79ABE001002402DE9F04786B00024B8
:1032D00031480094019402940394816941F01001F3
:1032E0008161816901F010010491816941F020013F
:1032F0008161816901F020010491816941F004013B
:103300008161816901F004010491816941F0080142
:1033100081618069DFF8848000F008004FF4005577
:103320000490002229464046FEF703FEDFF8709025
:103330004FF41047002239464846FEF7FAFDDFF801
:1033400064A0002238215046FEF7F3FD00950226C6
:1033500001250396CDE9015469464046FEF7ECFC91
:1033600000970396CDE9015469464846FEF7E4FC10
:103370003820CDE90005CDE9024669465046FEF702
:10338000DBFC4FF470708DE8310069465046FEF763
:10339000D3FC06B0BDE8F0870010024000100140E9
:1033A00000080140000C014010B586B0002416480A
:1033B000009401940294039404944FF08041059486
:1033C00001600721C0E901147821C0E90314846178
:1033D000FFF78EF908B1FEF73DF94FF480500090E9
:1033E00069460948FFF7FAF908B1FEF733F9049482
:1033F00004A905480594FFF747F9002801D0FEF716
:1034000029F906B010BD0000D80200200C4810B504
:103410000A4901604FF4E1314160002181600C22D2
:10342000C160C0E904128161C161FFF73DFC002861
:1034300003D0BDE81040FEF70DB910BD00480040B4
:1034400020030020FEE7FEE770477047FEF77CBDD3
:1034500030B593B028216846FDF721F814210AA859
:10346000FDF71DF8002401200F941094119401041D
:1034700012948DE8130004908004CDE90810022511
:1034800007956846FEF75AFF08B172B6FEE70F20AF
:103490000A90CDE90B540D9400210AA80E94FEF772
:1034A00061FE08B172B6FEE70FA80F951194FEF702
:1034B000E3FD002801D072B6FEE713B030BD7047BF
:1034C0000148FFF7F7B90000D8020020F0B5026804
:1034D000164B174C174D4FF08047984205D0B84215
:1034E00003D0A04201D0A84203D122F070064A685E
:1034F0003243984205D0B84203D0A04201D0A8423E
:1035000003D122F44074CA6822434C6922F080023D
:10351000224302608A68C2620A688262984201D1CC
:103520000969016301214161F0BD0000002C0140E7
:10353000000400400008004010B5846842EA0322FD
:1035400024F47F440A432243826010BD826822F043
:1035500070020A4342F007018160704710B5036AA8
:10356000046A24F001040462846924F0F00444EA4B
:10357000021423F00A020A438461026210BD10B5EE
:10358000036A23F0100303628369046A23F470431F
:1035900043EA023224F0A00343EA0111826101628E
:1035A00010BD10B5406A0021C185C184FFF774FACF
:1035B00010BD0168CA6822F49072CA6001684A6945
:1035C00022F001024A61016B012904D10168CA6835
:1035D00022F01002CA60202180F83E100021016311
:1035E000704708B590F83E10222901D0022008BD8E
:1035F00082684FF480539A4201D1016921B1816AF6
:103600009A421BD04AB10AE00268816A5268C2F34A
:1036100008020A80816A891C08E0026972B10268A6
:10362000526802F07F020A70816A491C8162C18D72
:10363000491E0904090CC18503D019E002685268CB
:10364000F1E70168CA6822F02002CA600168CA680E
:1036500022F48072CA6001684A6922F001024A615C
:10366000202180F83E10016B012903D0FFF7A4FB55
:10367000002008BD002101630168CA6822F0100221
:10368000CA6001680A68D20602D50A6849680091D2
:10369000818DFFF700FAEBE770B504460068016919
:1036A000E26821F44051114301612169A068084397
:1036B000616908432168CA6841F20C639A43024376
:1036C000CA6020684169A26921F4407111434161D7
:1036D0001E492068884202D1FEF7EAFD01E0FEF7AC
:1036E000D7FD00EBC00101EB00126068642180008F
:1036F000B2FBF0F3B3FBF1F36FF018067343B2FBC8
:10370000F0F5B2FBF0F605EB8305322303EB05156C
:10371000B5FBF1F5B6FBF1F605F0F00505EB061586
:10372000B2FBF0F6B2FBF0F0B0FBF1F06FF0180274
:10373000504306EB800003EB0010B0FBF1F0216872
:1037400000F00F002844886070BD00000038014080
:1037500081628285C28500210164222280F83E2098
:1037600080F83C100168CA6842F48072CA6001683F
:103770004A6942F001024A610068C16841F02001D3
:10378000C160002070472DE9F041984617460E466B
:103790000446069D1DE0681C1BD02DB1FEF7CEFB34
:1037A000A0EB0800A84214D92068C16821F4D071A8
:1037B000C1602068416921F001014161202084F845
:1037C0003D0084F83E00002084F83C000320BDE862
:1037D000F0812068006836EA000004D00020B8427A
:1037E000D9D00020F3E70120F9E700000148FFF7F6
:1037F00055B9000020030020FEE7490050EAC1202F
:1038000018BF04204A0D18BF40F0010040F2FF72BB
:10381000B2EB515F08BF40F00200012808BF05204D
:1038200070470907090E002804DB00F1E02080F84A
:103830000014704700F00F0000F1E02080F8141D24
:10384000704730380A2801D20120704700207047A5
:103850002DE9F041154D0F468046002405F108067C
:103860000EE000BF28FA04F0C00735F8141056F82F
:10387000240018D05FF00102FEF75BFB641CE4B289
:10388000BC42EFD301220A4D940321462846FEF79D
:1038900050FB0120FEF73EFA21462846BDE8F041E4
:1038A0000022FEF746BB0022E6E7000000000020F1
:1038B000000C014010B5044600224FF48051074827
:1038C000FEF737FB20090421FFF7C2FF04F00F00C9
:1038D000BDE810400421FFF7BBBF0000000C014011
:1038E00010B50446012211030648FEF722FB200909
:1038F0000421FFF7ADFF04F00F00BDE810400421E4
:10390000FFF7A6BF000C014096B0FEF725FBFFF7BE
:1039100067FBFFF79DFDFFF7D7FCFFF7BFFCFFF745
:1039200081FCFFF741FDFFF771FD032284498548C3
:10393000FDF7EAFF012284498448FFF727FA844A09
:103940004020CDE90C2080218000CDE90A214100F2
:10395000CDE90621CDE90820C0017E49CDE904105A
:103960001020CDE90020082375497748CDE90223CE
:103970002023891D2030FFF7A7FAFFF748FB00211D
:103980000846FFF7B7FB74A0FFF73CFC01210020BD
:10399000FFF7B0FB73A0FFF735FC694C0025203C16
:1039A0002078022804D000F003F92078022801D101
:1039B000607888B160780228F2D1A07801282CD0F4
:1039C0000028EDD16A482581006845626848FEF705
:1039D000D9FE0220A070E3E75B497431A1F16A00CF
:1039E000FCF70EFD58480A30FCF72EFD56492622FA
:1039F0000A310A547E31A1F17E00FCF744FD5248A1
:103A00000A30FCF721FD504982B2C8230A314F48E1
:103A1000FFF7FEF901206070C2E7E06800F09CFD4E
:103A2000DFF850814FF066363246434600F0ACFB7B
:103A3000DFF8449100224B4600F00AFA72104F4B17
:103A400000F05EF932464E4B00F09EFB77423A465C
:103A50004C4B00F055F94C4A4C4B00F095FB00F0F4
:103A60004FFB2071206900F077FD3246434600F09D
:103A70008BFB00224B4600F0EBF93A46444B00F03A
:103A800081FC0022434B00F07FFB00F039FB6071AA
:103A9000FDF798FD2A488088C0EB0011C1EBC010EB
:103AA00040F6FF71B0FBF1F0801E00F056FB3A4A81
:103AB0003A4B00F0CDF900F0F1F8E560C4E90450AC
:103AC000E561A56100F048FD02460B4634A10AA855
:103AD000FCF7AAFB227934A10DA8FCF7A5FB6279BB
:103AE00031A110A8FCF7A0FB94F906202EA113A881
:103AF000FCF79AFB0AA96846FCF782FC0DA9684608
:103B0000FCF7C1FC10A96846FCF7BDFC13A9684688
:103B1000FCF7B9FC6846FCF797FC82B2C8236946FB
:103B20000A48FFF775F9FFF7F1FA4FF400511F4803
:103B3000FEF7F7F94FF47A70FEF7ECF8A5702FE76F
:103B40003800002064020020C8010020200300206B
:103B5000000C0140000801404E68617020636F64F2
:103B600065000000262070617373776F7264000037
:103B7000D802002066660A4000FEAF403333F33FB0
:103B8000666616409999F13FE8D9ACFA5CED294098
:103B90009999F93F00205040F853E3A59BC4D83FC2
:103BA00025302E31660000002625640000100140FB
:103BB00070B52D48FFF7D6F92C4CE07080B32A4D34
:103BC000543505F11406582806D04528207817D01A
:103BD000F8B1012825D02AE02078002410B101286E
:103BE00006D024E020485430FCF72EFC284404E0A2
:103BF0001D486830FCF728FC304400F8014C16E002
:103C000010B1012802D012E0012000E00220207053
:103C10000DE015485430FCF717FCE178295406E014
:103C20001CE011486830FCF70FFCE17831540E4875
:103C30005430FCF709FC88B1FFF7E9F90021084688
:103C4000FFF758FA08485430FFF7DCFA012100204A
:103C5000FFF750FA04486830FFF7D4FABDE8704027
:103C60001E20FEF757B80000E801002018000020D1
:103C700010B500290AD00878002807D005487844F4
:103C8000FCF7ECFF002801D0002010BD024878446A
:103C900010BD00009A0E0000920E000021F00042BC
:103CA000A2F16052B2F5801F01F0004328BFD2F1AB
:103CB0007F6C0BD95FEA001C43EAC20242EB5070F2
:103CC00018BF704728BF20F001007047B2F5801F71
:103CD000BCBF184670474FEA410C1CF5001F02D2CA
:103CE000084600F083BD70B500F0F8FA00000089C6
:103CF000FFF7F6BF4FF00040A0F5800070470000CE
:103D000010B591EA030F48BF83F0004300F14283EE
:103D1000841A71EB030C05D2121943EB0C03001B40
:103D200061EB0C01DFF824E14FEA1154A4EB135CC2
:103D30001EEA430F18BF9EEA445F73D023EA0E03C6
:103D4000DCF1200E21EA045143F4801332D322FA2D
:103D50000CFE10EB0E0023FA0CFE41EB0E01CCF131
:103D6000200E03FA0EFE10EB0E0051F10001B1F52A
:103D7000801FCCF1200E32D201EB045112FA0EF268
:103D8000BDE8104058BF7047401C38BF5FEA420290
:103D900018BF7047002814BF20F0010041F1000156
:103DA0004FEA410313F5001F38BF7047A1F1C0412E
:103DB00000F0E2BA012A43EB0302ACF1200CDCF183
:103DC0001F0E32BF4FF0000E23FA0CF310EB03006E
:103DD00041EB0451B4EB115FD0D0A1EB045101F5DC
:103DE000801149085FEA300001EB04510ED350F115
:103DF000000038BF12FA0EFE08D1BDE81040C9E736
:103E0000401C38BF5FEA4202CAD1C3E7BDE8104098
:103E10004FEA410313F5001F38BF7047A1F1C041BD
:103E200000F0AABA9EEA445F08D011EA5E0FBDE82E
:103E3000104004BF01F0004100207047BDE8104071
:103E400070B500F04BFA00BF64FBBE3E0000E0FF1F
:103E50002DE9C04130B4DFF8A0C23CEA111418BF0C
:103E60003CEA131400F0EC8081EA03051CEA11140B
:103E700044EAD57418BF1CEA131500F0C780A4EB00
:103E800005044FF0004545EAC12145EAC32341EA54
:103E9000505143EA525304F17F74994204F50034BF
:103EA0004FEAC0204FEAC22208BF904200F09C8037
:103EB0004FEA13650FF24016765D4FEA134506FB95
:103EC00005F7C7F1807706FB07F74FEAD737A7FB5F
:103ED00003687642C8F58038A7FB06CE38BFA8F144
:103EE000010807FB08E64FF0000EA6FB028CE6FB7C
:103EF00003CEDCF1000CCEF1004E38BFAEF1010E66
:103F0000A6FB0C584FF000074FF00005E6FB0E87AC
:103F1000A1FB08C6A0FB07CE16EB0E0645F1000577
:103F2000E1FB076515F1E04E7EBFA4F580345FEA42
:103F300046066D4116F1800745F100054FEA172747
:103F40004FEA066647EA0567A6F1DE46B6F1805FEE
:103F50004FEA15251FD9384624F0010C05EBC47132
:103F6000BCF1FE6F01EB0C1102D8F0BCBDE8008182
:103F700024425CBF01F5801E9EEAC47F02D4F0BCDF
:103F8000BDE80081244238D4F0BCA1F1C041BDE8B5
:103F9000004100F0F1B94FEAD22242EA43524FEA1F
:103FA000D323A7FB02864FEAD02040EA415007FB0B
:103FB00003661EEA0E0F4FEAD12105FB026658BFC9
:103FC000A6EB0056B6EB00564FEA520E4EEAC37E01
:103FD00018EB0E0E56EB530EBDD518EB02085E41E2
:103FE0007F1C55F10005B6E74FF480154FF0000730
:103FF0004FF000064FF00008ADE7F0BC4FF00000B6
:1040000001F1C04101F00041BDE8008111EA0C1F3F
:104010000CEA131500D00CE013EA0C1F00F0258009
:104020004FF00000F0BC81EA030101F00041BDE85F
:104030000081F0BCBDE8004181EA030100F09CB9B9
:10404000F0BCBDE8004170B500F048F9097EFC3EC7
:1040500000F007B881EA03014FF0000001F00041D1
:10406000704781EA030100F087B9F0BCBDE8004168
:104070004FF0000021497047FFFDFBF9F7F5F4F21E
:10408000F0EEEDEBE9E8E6E4E3E1E0DEDDDBDAD8F3
:10409000D7D5D4D3D1D0CFCDCCCBCAC8C7C6C5C451
:1040A000C2C1C0BFBEBDBCBBBAB9B8B7B6B5B4B368
:1040B000B2B1B0AFAEADACABAAA9A8A8A7A6A5A453
:1040C000A3A3A2A1A09F9F9E9D9C9C9B9A99999817
:1040D0009797969595949393929191908F8F8E8EBA
:1040E0008D8C8C8B8B8A8989888887878685858447
:1040F00084838382828181800000FF070000F87F33
:104100004FEA1153A3F58063D3F11E03A8BFD3F187
:10411000200C08DB4FF0004242EAC12252EA505222
:1041200032FA03F0704709420BD4102BC4BF0020B1
:10413000704703F5787CBCF1FF3F05D04FF0FF30AE
:1041400070474FF00000704770B500F0C7F800BF2F
:104150004992248000207047F0E710F0004248BFE9
:104160004042B0FA80F310FA03F10AD0C3F11D0304
:1041700003F580634FEA415002EB035202EBD12179
:1041800070474FF000007047DFF848C170B51CEA77
:10419000111E1EBF1CEA13159EEA0C0F95EA0C0FA8
:1041A00000F06F8081EA030423EA4C134EEAD47EC8
:1041B00021EA4C1141F4801143F48013AE44A1FB79
:1041C000024CA0FB0365AEF17F7E361955EB0C0562
:1041D000A1FB034C4CF10003A0FB021C16EB0C06E8
:1041E000654153F10003094218BF46F0010613F47C
:1041F000007F0BD14FEA03314FEA0530340341EA27
:10420000155140EA16506FF003020AE04FEAC3214D
:104210004FEAC520F40241EA555140EA56506FF08A
:10422000020202EB2E4201EB025585EACE710AD062
:104230005FEA440C18BF24F0004450F1000041F143
:10424000000120EAD47040F2FE7C624500D270BDCD
:10425000A84214BF4FF080444FF04044002E08BFE6
:104260000024BEF1806FA8BFA1F1C041BDE870403D
:1042700080F282804FF0000001F1C04101F0004166
:1042800070479EEA0C0F0CEA131518BF95EA0C0F45
:1042900006D04FF0000081EA030E0EF0004170BD21
:1042A00000F01CF88900013E00F007B800F009B8E2
:1042B0004FEA430C5FEA5C5C08D081EA030100F03E
:1042C0005BB84FEA410C5FEA5C5CF6D14FF000004E
:1042D000014970470000FF070000F87F0EF1020E51
:1042E0002EF0030E5EF8046B364205D4012A43EB30
:1042F000030515F5001F12D8012841EB010C1CF530
:10430000001F0CD80ED14FEAD17C15F5001F0CEB25
:104310004C0C0CF1020C08BF4CEBD37C04E04FF0CA
:10432000080C01E04FEAD37C0CEB4C0526FA05F6AD
:1043300006F00706B6F1040C06D20EEB860CBDE8BB
:1043400070404CF0010C6047DFE80CF0090B0202F2
:104350004FF000414FF00000A1F5002170BD19465B
:104360001046012851EB010418BFD4F5001484BF96
:10437000002001F0004170BD0808A0F500114FEACF
:104380003101704710B591EA030F48BF83F0004335
:104390003FF5BEAC841A71EB030C07D212198CF0F6
:1043A000004C43EB0C03001B61EB0C01DFF8A4E1B4
:1043B0004FEA1154A4EB135C1EEA430F18BF9EEAA8
:1043C000445F00F0B08023EA6E03524221EA0451B8
:1043D000C3EB6E0338BF5B1EDCF1200E25D322FA3F
:1043E0000CFE10EB0E0043FA0CFE41EB0E01CCF17B
:1043F000200E03FA0EFE10EB0E0051F10001CCF17D
:10440000200E29D412FA0EF201EB0451BDE810403F
:1044100058BF7047401C1CBFB2F1004F70470028C6
:104420000CBF491C20F00100704712EB020E43EB59
:10443000030218BF4FF0010E4EEA4202ACF1200C0D
:10444000DCF11E0E54D943FA0CFE10EB0E0051F1B4
:10445000FF31CCF11E0ED5D50EF1010E12FA0EFE73
:10446000404141EB010101EB445C5FEA5C5C10D927
:1044700010EBDE7001EB045138BFBEF1004FBDE818
:10448000104018BF704700280CBF491C20F00100E5
:10449000704730D24FEAD42C11F5001124F4006497
:1044A0001BD0B1FA81F20B3AA41AA41ED2F1200358
:1044B000914030FA03F31943904001EBCC71002C8A
:1044C00001EB0451BDE81040A8BF704701F1C041A5
:1044D0004FF0000001F000417047B0FA80F310FA8D
:1044E00003F100D110BDE41A173C4805C90AE4E7FE
:1044F00001EB045110BD491001EB0451BDE810401F
:104500004FEA300002E04FF0000170474A0008BF58
:104510000042F8D0B2F5001F28BF704701F00041FB
:104520004FF0000070479EEA445F07D011EA5E0F2B
:10453000BDE8104004BF002100207047BDE81040D6
:1045400070B5FFF7CBFE00BF40DFF63E83F00041C1
:10455000104670470000E0FF43004FEAD30C4FEADB
:104560003C0C43401FBF40070CF1605113F0FE4F5D
:1045700070471CF0006F03D100200CF00041704721
:104580000CF0004343EA507010B540EACC0000F054
:10459000E7F800BF000000924FEA0001FFF7ECBE11
:1045A0004FF000414FF00000A1F5002170470000DE
:1045B00090EA010F48BF81F0004100F15E81421A8C
:1045C0003CBF801A89184FEAD0524FF07F4C1CEA4A
:1045D000410FA2EBD15318BF9CEA026F00F03B8061
:1045E0004FF0004C4CEA00204CEA012121FA03FC78
:1045F00010EB0C0C1ED202F1FF325FEA1C2040EBE4
:10460000C25038BF70471CF07F0F4FEA400C18BFF4
:10461000BCF17F4F38BF7047C3F12003994008BFFA
:1046200020F00100BCF17F4F38BF7047A0F1C040BF
:1046300000F0DCB84FEA3C00000A40EBC25028BF53
:104640001CF0FF0F4FEA400CE6D018BFBCF17F4FC3
:1046500038BF7047EAE79CEA026F05D010EA5C0FAA
:1046600008BF00F00040704710B500F079F800BFB7
:1046700064FBBE3E014800F070B900BF0000C07F7F
:10468000401058BFC0F14040491058BFC1F14041EF
:104690008142EFF30080704741000B0ED3F19E0280
:1046A00008D950F400034FEA032323FA02F048BF6D
:1046B0004042704710B500F053F800BF4992248083
:1046C000002070476FF0004282EA2000704700002F
:1046D000B0FA80F310FA03F2C3F19D030AD0D905B2
:1046E00001EB1220530638BF704700F1010008BFEC
:1046F00020F001007047000050EA010C00F1138027
:104700001CF5000F58BFBCF5000F01D4884270475C
:1047100007D710F5000F58BF11F5000F15D48842C8
:104720007047894270471CF5000F04D5BCF5000F97
:10473000F7D5814270474FF0807C1CEB400F38BFAB
:104740001CEB410F01D28142704710B500F008F810
:10475000922449004FF000504FF08051FFF790BF76
:104760000EF1020E2EF0030E5EF8044B244204D428
:104770004FEA4102B2F17F4F11D84FEA4003B3F143
:104780007F4F0CD80ED14FEAD07CB2F17F4F0CEBAB
:104790004C0C0CF1020C08BF4CEBD17C04E04FF048
:1047A000080C01E04FEAD17C0CEB4C0324FA03F433
:1047B00004F00704B4F1040C06D20EEB840CBDE83F
:1047C00010404CF0010C6047DFE80CF007080202D3
:1047D0004FF00040A0F5800010BD0846420018BF11
:1047E000D2F1807288BF00F0004010BDFF2141EA85
:1047F000D050C005704751EA000C00F113801CF541
:10480000000F58BFBCF5000F01D48142704707D795
:1048100011F5000F58BF10F5000F15D481427047F5
:10482000894270471CF5000F04D5BCF5000FF7D581
:10483000884270474FF0807C1CEB410F38BF1CEB67
:10484000400F01D28842704780EA010081EA0001EE
:1048500080EA0100FFF779BF80F0004090EA010F85
:104860007FF5ADAE81F0004100F007B890EA010F8E
:1048700048BF81F000413FF5A2AE421A04D882F051
:104880000042A0EB020011444FEAD0524FF07F4C9F
:104890001CEA410FA2EBD15318BF9CEA026F4AD029
:1048A0004FF0004C4CEA00204CEA012121FA03FCB5
:1048B000B0EB0C0C0FD412F0FE0F36D05FEA4C00B8
:1048C0001DD5001240EBC25038BF70471CF03F0F9F
:1048D00018BF70470BE0A2F101025FEA1C2040EB19
:1048E000C25038BF70471CF07F0F18BF7047C3F12C
:1048F0002003994014BF401E20F00100704780083B
:104900004FEA122308BF7047B0FA80FCA2EB0C02FA
:10491000CCF1280C60FA0CF093EA122F04BF00EBE4
:10492000C25070474FEAC3707047130A5FEADC1049
:1049300008BF7047F6E79CEA026F04D010EA5C0FEC
:1049400008BF0020704710B5FFF70AFF40DFF63EB2
:1049500081F000407047FBF7FEBE0CF00F03092BFF
:1049600008BF082000F051800A2B0BD0082B18BF7D
:10497000704708BF1CF0400F0AD04FF000004FF006
:10498000000170471CF0400F18BF4FF00040704707
:104990001CF0100F08D020F0704300F07F4242EA74
:1049A000D3014FEA4370704700F0604021F07F422E
:1049B00042EA000201F07F4040EA727070474FF017
:1049C000FF0212EAD0521CBF92F0FF038B42C2BF1B
:1049D000D14200EBC1507047002A0AD0002B0BD007
:1049E000002900F00040A4BF40F0FE4040F4000069
:1049F000704700F00040704743024FF00B0C18BFA7
:104A00004CF0806C7FF436AE70471CF4801F11D0E0
:104A10001CF4E02F03D06FEACC31490070474FF00F
:104A20004050EFF3008222F0704242EA000282F32B
:104A3000008870474FF00000704700000000000041
:104A4000000001020304060708090000000001023B
:104A50000304040000080000000000000002000140
:104A60000000100002400000000000A00000000054
:104A700005400000000000C8000000000C400000DD
:104A80000000409C00000000194000000020BCBE57
:104A90000000000034400000BFC91B8E000000046D
:104AA000B5400000504BCFD06607E2CF01000000B8
:104AB0006C4100003E8251AADFEEA73401000000E5
:104AC000D9420000DCB5A0E23A301F97FFFFFFFF9C
:104AD000B4450000FD25A0C8E9A3C14FFFFFFFFFBB
:104AE000FF3F00000000008000000000FF3F0000CA
:104AF0000000008000000000344B0008000000208F
:104B0000C801000028010008B84C0008C8010020B6
:104B100000080000840100081C00000043000000A1
:104B2000F8FFFFFF0C0000000E0000000F00000067
:104B30002E000000111280120112021204140C0146
:104B4000409A080401253812313233413435364257
:104B5000373839435830454464011A6301105162B3
:104B6000626261616160605F5F5E5D5D5C5B5B5A5C
:104B700059585757565554535251504F4E4D4B4A12
:104B800049484745444342403F3E3C3B393836352F
:104B90003432302F2D2C2A2927252422211F1D1C99
:104BA0001A1817151311100E0C0A0907050302181D
:104BB00052FEFDFBF9F7F6F4F2F0EFEDEBE9E8E673
:104BC000E4E3E1DFDEDCDBD9D7D6D4D3D1D0CECC61
:104BD000CBCAC8C7C5C4C2C1C0BEBDBCBBB9B8B7CB
:104BE000B6B5B3B2B1B0AFAEADACABAAA9A9A8A7E8
:104BF000A6A5A5A4A3A3A2A1A1A0A09F9F9F9E9E9E
:104C00009E9D018A9C01290F1916191C104BA0A00A
:104C1000A1A1A2A3A3A4A5A5A6A7A8A9A9AAABAC34
:104C2000ADAEAFB0B1B2B3B5B6B7B8B9BBBCBDBE2F
:104C3000C0C1C2C4C5C7C8CACBCCCED0D1D3D4D6CC
:104C4000D7D9DBDCDEDFE1E3E4E6E8E9EBEDEFF02A
:104C5000F2F4F6F7F9FBFDFE185202030507090A04
:104C60000C0E1011131517181A1C1D1F21222425B4
:104C700027292A2C2D2F303234353638393B3C3E0B
:104C80003F40424344454748494A4B4D4E4F50519F
:104C90005253545556575758595A5B5B5C5D5D5E8D
:104CA0005F5F606061616162626263012A64012129
:084CB000320182101324F4000C
:04000005080000ED02
:00000001FF
